A51 MACRO ASSEMBLER  DEC                                                                  12/13/2014 01:22:23 PAGE     1


MACRO ASSEMBLER A51 V8.02b
OBJECT MODULE PLACED IN dec.OBJ
ASSEMBLER INVOKED BY: C:\Program Files (x86)\Keil\C51\BIN\A51.EXE dec.a51 SET(SMALL) DEBUG EP

LOC  OBJ            LINE     SOURCE

                       1     ;Prelude and explanations:
                       2     ;max a = 100*100/100 = 100 => only 1 byte is used.
                       3     ;max a * 15 / 336 = 100 * 15 / 336 = 4 => only 1 byte is used.
                       4     ;constants in this function:
                       5     ;m*3/40 = 100 * 3 / 40 = 7 = 0x07;
                       6     ;m/6 = 100 / 6 = 16 = 0x10
                       7     EXTRN CODE (?C?UIDIV)
                       8     
0000 7900              9     MOV R1, #0x00   ;Start X
                      10     
0002                  11     main_loop:
                      12     
0002 E9               13     MOV A, R1               ;x^2 = R6.R7
0003 89F0             14     MOV B, R1
0005 120037           15     LCALL do_math
0008 FA               16     MOV R2, A               ;SAVE 'a'
                      17     
0009 75F00F           18     MOV B, #0x0F            ;(m * 3 / 40 + a * 15 / 336)
000C A4               19     MUL AB
000D AEF0             20     MOV R6, B
000F FF               21     MOV R7, A
0010 7C01             22     MOV R4, #0x01
0012 7D50             23     MOV R5, #0x50
0014 120000   F       24     LCALL ?C?UIDIV
0017 EF               25     MOV A, R7
0018 2407             26     ADD A, #0x07
                      27     
001A 8AF0             28     MOV B, R2               ;a * (...) / m
001C 120037           29     LCALL do_math
                      30     
001F 2410             31     ADD A, #0x10    ;a * (m / 6 + ...) / m
0021 8AF0             32     MOV B, R2
0023 120037           33     LCALL do_math
                      34     
0026 2A               35     ADD A, R2               ;x * (m + ...) / m
0027 89F0             36     MOV B, R1
0029 120037           37     LCALL do_math
                      38     
002C 8FB0             39     MOV P3, R7              ;output
                      40     
002E 09               41     INC R1
002F 7465             42     MOV A, #0x65
0031 C3               43     CLR C
0032 99               44     SUBB A, R1
0033 70CD             45     JNZ main_loop
0035 800D             46     JMP fin
                      47     
0037                  48     do_math:                        ;doing A * B / m
0037 A4               49             MUL AB
0038 AEF0             50             MOV R6, B               ;Variable 'a' assigned to Register 'R6/R7'
003A FF               51             MOV R7, A
003B 7C00             52             MOV R4, #0x00   ;Variable 'b' assigned to Register 'R4/R5'
003D 7D64             53             MOV R5, #0x64
003F 120000   F       54             LCALL ?C?UIDIV  ;Variable 'result' assigned to Register 'R6/R7'
0042 EF               55             MOV A, R7
0043 22               56             RET
                      57             
0044                  58     fin:
A51 MACRO ASSEMBLER  DEC                                                                  12/13/2014 01:22:23 PAGE     2

                      59     END
                             
A51 MACRO ASSEMBLER  DEC                                                                  12/13/2014 01:22:23 PAGE     3

SYMBOL TABLE LISTING
------ ----- -------


N A M E             T Y P E  V A L U E   ATTRIBUTES

?C?UIDIV . . . . .  C ADDR   -----       EXT
B. . . . . . . . .  D ADDR   00F0H   A   
DO_MATH. . . . . .  C ADDR   0037H   A   
FIN. . . . . . . .  C ADDR   0044H   A   
MAIN_LOOP. . . . .  C ADDR   0002H   A   
P3 . . . . . . . .  D ADDR   00B0H   A   


REGISTER BANK(S) USED: 0 


ASSEMBLY COMPLETE.  0 WARNING(S), 0 ERROR(S)
