A51 MACRO ASSEMBLER  REALTIME_ASM                                                         03/22/2015 23:22:10 PAGE     1


MACRO ASSEMBLER A51 V8.02b
OBJECT MODULE PLACED IN realtime_asm.OBJ
ASSEMBLER INVOKED BY: C:\Program Files (x86)\Keil\C51\BIN\A51.EXE realtime_asm.a51 SET(SMALL) DEBUG EP

LOC  OBJ            LINE     SOURCE

----                   1     iseg at 30h
0030                   2     Stack: ds 10
----                   3     cseg at 0
0000 803E              4     jmp start
                       5     
----                   6     cseg at 0Bh
000B 804F              7     jmp ex00
                       8     
----                   9     cseg at 40h
0040                  10     start: 
0040 759000           11     mov P1, #0h              
0043 75A000           12     mov P2, #0h              
0046 7900             13     mov R1, #0h              
0048 75812F           14     mov SP, #Stack-1
004B 758901           15     mov TMOD, #1h
004E D2A9             16     setb ET0
0050 D28C             17     setb TR0
0052 D2AF             18     setb EA
0054 758C3C           19     mov TH0, #3Ch
0057 758AAF           20     mov TL0, #0AFh
005A                  21     loop:
005A 80FE             22     jmp loop
                      23     
005C                  24     ex00:
005C C0E0             25     push ACC
005E C0D0             26     push PSW
0060 758C3C           27     mov TH0, #3Ch
0063 758AAF           28     mov TL0, #0AFh
0066 E9               29     mov a, R1
0067 04               30     inc a
0068 F9               31     mov R1, a
0069 B41412           32     cjne a, #14h, continue
006C 7900             33     mov R1, #0h
006E E590             34     mov a, P1
0070 04               35     inc a
0071 F590             36     mov P1, a
0073 B43C08           37     cjne a, #3Ch, continue
0076 759000           38     mov P1, #0h
0079 E5A0             39     mov a, P2
007B 04               40     inc a
007C F5A0             41     mov P2, a
007E                  42     continue:
007E D0D0             43     pop PSW
0080 D0E0             44     pop ACC
0082 32               45     reti
                      46     
                      47     end
A51 MACRO ASSEMBLER  REALTIME_ASM                                                         03/22/2015 23:22:10 PAGE     2

SYMBOL TABLE LISTING
------ ----- -------


N A M E             T Y P E  V A L U E   ATTRIBUTES

ACC. . . . . . . .  D ADDR   00E0H   A   
CONTINUE . . . . .  C ADDR   007EH   A   
EA . . . . . . . .  B ADDR   00A8H.7 A   
ET0. . . . . . . .  B ADDR   00A8H.1 A   
EX00 . . . . . . .  C ADDR   005CH   A   
LOOP . . . . . . .  C ADDR   005AH   A   
P1 . . . . . . . .  D ADDR   0090H   A   
P2 . . . . . . . .  D ADDR   00A0H   A   
PSW. . . . . . . .  D ADDR   00D0H   A   
SP . . . . . . . .  D ADDR   0081H   A   
STACK. . . . . . .  I ADDR   0030H   A   
START. . . . . . .  C ADDR   0040H   A   
TH0. . . . . . . .  D ADDR   008CH   A   
TL0. . . . . . . .  D ADDR   008AH   A   
TMOD . . . . . . .  D ADDR   0089H   A   
TR0. . . . . . . .  B ADDR   0088H.4 A   


REGISTER BANK(S) USED: 0 


ASSEMBLY COMPLETE.  0 WARNING(S), 0 ERROR(S)
