A51 MACRO ASSEMBLER  REALTIME_ASM2                                                        03/22/2015 23:46:15 PAGE     1


MACRO ASSEMBLER A51 V8.02b
OBJECT MODULE PLACED IN realtime_asm2.OBJ
ASSEMBLER INVOKED BY: C:\Program Files (x86)\Keil\C51\BIN\A51.EXE realtime_asm2.a51 SET(SMALL) DEBUG EP

LOC  OBJ            LINE     SOURCE

----                   1     iseg at 30h
0030                   2     Stack: ds 10
----                   3     cseg at 0
0000 803E              4     jmp start
                       5     
----                   6     cseg at 0Bh
000B 804E              7     jmp ex00
                       8     
----                   9     cseg at 40h
0040                  10     start: 
0040 759000           11     mov P1, #0h              
0043 75A000           12     mov P2, #0h              
0046 7900             13     mov R1, #0h              
0048 7A00             14     mov R2, #0h
004A 75812F           15     mov SP, #Stack-1
004D 758902           16     mov TMOD, #2h    
0050 D2A9             17     setb ET0
0052 D28C             18     setb TR0
0054 D2AF             19     setb EA
0056 758C06           20     mov TH0, #6h
0059                  21     loop:
0059 80FE             22     jmp loop
                      23     
005B                  24     ex00:
005B C0E0             25     push ACC
005D C0D0             26     push PSW
005F C3               27     clr C
0060 E9               28     mov a, R1
0061 2401             29     add a, #1h
0063 F9               30     mov R1, a
0064 EA               31     mov a, R2
0065 3400             32     addc a, #0h
0067 FA               33     mov R2, a
                      34     
0068 B40F18           35     cjne a, #0Fh, continue           
006B E9               36     mov a, R1
006C B4A014           37     cjne a, #0A0h, continue          
006F 7900             38     mov R1, #0h
0071 7A00             39     mov R2, #0h
0073 E590             40     mov a, P1
0075 04               41     inc a
0076 F590             42     mov P1, a
0078 B43C08           43     cjne a, #3Ch, continue           
007B 759000           44     mov P1, #0h
007E E5A0             45     mov a, P2
0080 04               46     inc a
0081 F5A0             47     mov P2, a
0083                  48     continue:
0083 D0D0             49     pop PSW
0085 D0E0             50     pop ACC
0087 32               51     reti
                      52     
                      53     end
A51 MACRO ASSEMBLER  REALTIME_ASM2                                                        03/22/2015 23:46:15 PAGE     2

SYMBOL TABLE LISTING
------ ----- -------


N A M E             T Y P E  V A L U E   ATTRIBUTES

ACC. . . . . . . .  D ADDR   00E0H   A   
CONTINUE . . . . .  C ADDR   0083H   A   
EA . . . . . . . .  B ADDR   00A8H.7 A   
ET0. . . . . . . .  B ADDR   00A8H.1 A   
EX00 . . . . . . .  C ADDR   005BH   A   
LOOP . . . . . . .  C ADDR   0059H   A   
P1 . . . . . . . .  D ADDR   0090H   A   
P2 . . . . . . . .  D ADDR   00A0H   A   
PSW. . . . . . . .  D ADDR   00D0H   A   
SP . . . . . . . .  D ADDR   0081H   A   
STACK. . . . . . .  I ADDR   0030H   A   
START. . . . . . .  C ADDR   0040H   A   
TH0. . . . . . . .  D ADDR   008CH   A   
TMOD . . . . . . .  D ADDR   0089H   A   
TR0. . . . . . . .  B ADDR   0088H.4 A   


REGISTER BANK(S) USED: 0 


ASSEMBLY COMPLETE.  0 WARNING(S), 0 ERROR(S)
