A51 MACRO ASSEMBLER  REALTIME_ASM3                                                        03/22/2015 23:50:43 PAGE     1


MACRO ASSEMBLER A51 V8.02b
OBJECT MODULE PLACED IN realtime_asm3.OBJ
ASSEMBLER INVOKED BY: C:\Program Files (x86)\Keil\C51\BIN\A51.EXE realtime_asm3.a51 SET(SMALL) DEBUG EP

LOC  OBJ            LINE     SOURCE

----                   1     iseg at 30h
0030                   2     Stack: ds 10
----                   3     cseg at 0
0000 803E              4     jmp start
                       5     
----                   6     cseg at 0Bh
000B 804B              7     jmp ex00
                       8     
----                   9     cseg at 40h
0040                  10     start: 
0040 759000           11     mov P1, #0h              
0043 75A000           12     mov P2, #0h              
0046 7900             13     mov R1, #0h              
0048 7A00             14     mov R2, #0h
004A 75812F           15     mov SP, #Stack-1
004D 758903           16     mov TMOD, #3h    
0050 D2A9             17     setb ET0
0052 D28C             18     setb TR0
0054 D2AF             19     setb EA
0056                  20     loop:
0056 80FE             21     jmp loop
                      22     
0058                  23     ex00:
0058 C0E0             24     push ACC
005A C0D0             25     push PSW
005C C3               26     clr C
005D E9               27     mov a, R1
005E 2401             28     add a, #1h
0060 F9               29     mov R1, a
0061 EA               30     mov a, R2
0062 3400             31     addc a, #0h
0064 FA               32     mov R2, a
                      33     
0065 B40F18           34     cjne a, #0Fh, continue           
0068 E9               35     mov a, R1
0069 B44214           36     cjne a, #42h, continue           
006C 7900             37     mov R1, #0h
006E 7A00             38     mov R2, #0h
0070 E590             39     mov a, P1
0072 04               40     inc a
0073 F590             41     mov P1, a
0075 B43C08           42     cjne a, #3Ch, continue           
0078 759000           43     mov P1, #0h
007B E5A0             44     mov a, P2
007D 04               45     inc a
007E F5A0             46     mov P2, a
0080                  47     continue:
0080 D0D0             48     pop PSW
0082 D0E0             49     pop ACC
0084 32               50     reti
                      51     
                      52     end
A51 MACRO ASSEMBLER  REALTIME_ASM3                                                        03/22/2015 23:50:43 PAGE     2

SYMBOL TABLE LISTING
------ ----- -------


N A M E             T Y P E  V A L U E   ATTRIBUTES

ACC. . . . . . . .  D ADDR   00E0H   A   
CONTINUE . . . . .  C ADDR   0080H   A   
EA . . . . . . . .  B ADDR   00A8H.7 A   
ET0. . . . . . . .  B ADDR   00A8H.1 A   
EX00 . . . . . . .  C ADDR   0058H   A   
LOOP . . . . . . .  C ADDR   0056H   A   
P1 . . . . . . . .  D ADDR   0090H   A   
P2 . . . . . . . .  D ADDR   00A0H   A   
PSW. . . . . . . .  D ADDR   00D0H   A   
SP . . . . . . . .  D ADDR   0081H   A   
STACK. . . . . . .  I ADDR   0030H   A   
START. . . . . . .  C ADDR   0040H   A   
TMOD . . . . . . .  D ADDR   0089H   A   
TR0. . . . . . . .  B ADDR   0088H.4 A   


REGISTER BANK(S) USED: 0 


ASSEMBLY COMPLETE.  0 WARNING(S), 0 ERROR(S)
