BL51 BANKED LINKER/LOCATER V6.22                                                        03/22/2015  23:22:10  PAGE 1


BL51 BANKED LINKER/LOCATER V6.22, INVOKED BY:
C:\PROGRAM FILES (X86)\KEIL\C51\BIN\BL51.EXE STARTUP.obj, realtime_asm.obj TO RealTime_ASM


INPUT MODULES INCLUDED:
  STARTUP.obj (?C_STARTUP)
  realtime_asm.obj (REALTIME_ASM)


LINK MAP OF MODULE:  RealTime_ASM (?C_STARTUP)


            TYPE    BASE      LENGTH    RELOCATION   SEGMENT NAME
            -----------------------------------------------------

            * * * * * * *   D A T A   M E M O R Y   * * * * * * *
            REG     0000H     0008H     ABSOLUTE     "REG BANK 0"
                    0008H     0028H                  *** GAP ***
            IDATA   0030H     000AH     ABSOLUTE     
            IDATA   003AH     0001H     UNIT         ?STACK

            * * * * * * *   C O D E   M E M O R Y   * * * * * * *
            CODE    0000H     0003H     ABSOLUTE     
* OVERLAP * CODE    0000H     0002H     ABSOLUTE     
                    0003H     0008H                  *** GAP ***
            CODE    000BH     0002H     ABSOLUTE     
                    000DH     0033H                  *** GAP ***
            CODE    0040H     0043H     ABSOLUTE     
                    0083H     077DH                  *** GAP ***
            CODE    0800H     000CH     UNIT         ?C_C51STARTUP



UNRESOLVED EXTERNAL SYMBOLS:
   ?C_START



SYMBOL TABLE OF MODULE:  RealTime_ASM (?C_STARTUP)

  VALUE           TYPE          NAME
  ----------------------------------

  -------         MODULE        ?C_STARTUP
  C:0800H         SEGMENT       ?C_C51STARTUP
  I:003AH         SEGMENT       ?STACK
  C:0000H         PUBLIC        ?C_STARTUP
  D:00E0H         SYMBOL        ACC
  D:00F0H         SYMBOL        B
  D:0083H         SYMBOL        DPH
  D:0082H         SYMBOL        DPL
  N:0000H         SYMBOL        IBPSTACK
  N:0100H         SYMBOL        IBPSTACKTOP
  N:0080H         SYMBOL        IDATALEN
  C:0803H         SYMBOL        IDATALOOP
  N:0000H         SYMBOL        PBPSTACK
  N:0100H         SYMBOL        PBPSTACKTOP
  N:0000H         SYMBOL        PDATALEN
BL51 BANKED LINKER/LOCATER V6.22                                                      03/22/2015  23:22:10  PAGE 2


  N:0000H         SYMBOL        PDATASTART
  N:0000H         SYMBOL        PPAGE
  N:0000H         SYMBOL        PPAGEENABLE
  D:00A0H         SYMBOL        PPAGE_SFR
  D:0081H         SYMBOL        SP
  C:0800H         SYMBOL        STARTUP1
  N:0000H         SYMBOL        XBPSTACK
  N:0000H         SYMBOL        XBPSTACKTOP
  N:0000H         SYMBOL        XDATALEN
  N:0000H         SYMBOL        XDATASTART
  C:0000H         LINE#         126
  C:0800H         LINE#         133
  C:0802H         LINE#         134
  C:0803H         LINE#         135
  C:0804H         LINE#         136
  C:0806H         LINE#         185
  C:0809H         LINE#         196
  -------         ENDMOD        ?C_STARTUP

  -------         MODULE        REALTIME_ASM
  D:00E0H         SYMBOL        ACC
  C:007EH         SYMBOL        CONTINUE
  B:00A8H.7       SYMBOL        EA
  B:00A8H.1       SYMBOL        ET0
  C:005CH         SYMBOL        EX00
  C:005AH         SYMBOL        LOOP
  D:0090H         SYMBOL        P1
  D:00A0H         SYMBOL        P2
  D:00D0H         SYMBOL        PSW
  D:0081H         SYMBOL        SP
  I:0030H         SYMBOL        STACK
  C:0040H         SYMBOL        START
  D:008CH         SYMBOL        TH0
  D:008AH         SYMBOL        TL0
  D:0089H         SYMBOL        TMOD
  B:0088H.4       SYMBOL        TR0
  C:0000H         LINE#         4
  C:000BH         LINE#         7
  C:0040H         LINE#         11
  C:0043H         LINE#         12
  C:0046H         LINE#         13
  C:0048H         LINE#         14
  C:004BH         LINE#         15
  C:004EH         LINE#         16
  C:0050H         LINE#         17
  C:0052H         LINE#         18
  C:0054H         LINE#         19
  C:0057H         LINE#         20
  C:005AH         LINE#         22
  C:005CH         LINE#         25
  C:005EH         LINE#         26
  C:0060H         LINE#         27
  C:0063H         LINE#         28
  C:0066H         LINE#         29
  C:0067H         LINE#         30
  C:0068H         LINE#         31
  C:0069H         LINE#         32
BL51 BANKED LINKER/LOCATER V6.22                                                      03/22/2015  23:22:10  PAGE 3


  C:006CH         LINE#         33
  C:006EH         LINE#         34
  C:0070H         LINE#         35
  C:0071H         LINE#         36
  C:0073H         LINE#         37
  C:0076H         LINE#         38
  C:0079H         LINE#         39
  C:007BH         LINE#         40
  C:007CH         LINE#         41
  C:007EH         LINE#         43
  C:0080H         LINE#         44
  C:0082H         LINE#         45
  -------         ENDMOD        REALTIME_ASM

*** WARNING L5: CODE SPACE MEMORY OVERLAP
    FROM:    0000H
    TO:      0002H

*** WARNING L1: UNRESOLVED EXTERNAL SYMBOL
    SYMBOL:  ?C_START
    MODULE:  STARTUP.obj (?C_STARTUP)

*** WARNING L2: REFERENCE MADE TO UNRESOLVED EXTERNAL
    SYMBOL:  ?C_START
    MODULE:  STARTUP.obj (?C_STARTUP)
    ADDRESS: 080AH

******************************************************************************
* RESTRICTED VERSION WITH 0800H BYTE CODE SIZE LIMIT; USED: 0056H BYTE ( 4%) *
******************************************************************************

Program Size: data=19.0 xdata=0 code=86
LINK/LOCATE RUN COMPLETE.  3 WARNING(S),  0 ERROR(S)
