BL51 BANKED LINKER/LOCATER V6.22                                                        12/20/2014  17:14:25  PAGE 1


BL51 BANKED LINKER/LOCATER V6.22, INVOKED BY:
C:\PROGRAM FILES (X86)\KEIL\C51\BIN\BL51.EXE DirectAccessC.obj TO DirectAccessC RAMSIZE (256)


MEMORY MODEL: SMALL


INPUT MODULES INCLUDED:
  DirectAccessC.obj (DIRECTACCESSC)
  C:\PROGRAM FILES (X86)\KEIL\C51\LIB\C51S.LIB (?C_STARTUP)
  C:\PROGRAM FILES (X86)\KEIL\C51\LIB\C51S.LIB (STRLEN)
  C:\PROGRAM FILES (X86)\KEIL\C51\LIB\C51S.LIB (?C?CLDPTR)


LINK MAP OF MODULE:  DirectAccessC (DIRECTACCESSC)


            TYPE    BASE      LENGTH    RELOCATION   SEGMENT NAME
            -----------------------------------------------------

            * * * * * * *   D A T A   M E M O R Y   * * * * * * *
            REG     0000H     0008H     ABSOLUTE     "REG BANK 0"
            DATA    0008H     0001H     UNIT         _DATA_GROUP_
            IDATA   0009H     0001H     UNIT         ?STACK

            * * * * * * *  X D A T A   M E M O R Y  * * * * * * *
            XDATA   0000H     0007H     UNIT         ?XD?DIRECTACCESSC

            * * * * * * *   C O D E   M E M O R Y   * * * * * * *
            CODE    0000H     0003H     ABSOLUTE     
                    0003H     07FDH                  *** GAP ***
            CODE    0800H     00B8H     UNIT         ?PR?MAIN?DIRECTACCESSC
            CODE    08B8H     0019H     UNIT         ?C?LIB_CODE
            CODE    08D1H     0015H     UNIT         ?PR?_STRLEN?STRLEN
            CODE    08E6H     000DH     UNIT         ?CO?DIRECTACCESSC
            CODE    08F3H     000CH     UNIT         ?C_C51STARTUP



OVERLAY MAP OF MODULE:   DirectAccessC (DIRECTACCESSC)


SEGMENT                          DATA_GROUP 
  +--> CALLED SEGMENT          START    LENGTH
----------------------------------------------
?C_C51STARTUP                  -----    -----
  +--> ?PR?MAIN?DIRECTACCESSC

?PR?MAIN?DIRECTACCESSC         0008H    0001H
  +--> ?CO?DIRECTACCESSC
  +--> ?PR?_STRLEN?STRLEN



SYMBOL TABLE OF MODULE:  DirectAccessC (DIRECTACCESSC)

  VALUE           TYPE          NAME
  ----------------------------------
BL51 BANKED LINKER/LOCATER V6.22                                                      12/20/2014  17:14:25  PAGE 2



  -------         MODULE        DIRECTACCESSC
  C:0000H         SYMBOL        _ICE_DUMMY_
  C:08EDH         PUBLIC        second
  X:0000H         PUBLIC        result
  C:0800H         PUBLIC        main
  C:08E6H         PUBLIC        first
  -------         PROC          MAIN
  -------         DO            
  D:0008H         SYMBOL        i
  D:0007H         SYMBOL        j
  D:0005H         SYMBOL        a
  D:0004H         SYMBOL        b
  D:0005H         SYMBOL        sum
  D:0006H         SYMBOL        resultPosition
  D:0001H         SYMBOL        carry
  -------         ENDDO         
  C:0800H         LINE#         9
  C:0800H         LINE#         10
  C:0800H         LINE#         12
  C:080BH         LINE#         13
  C:0814H         LINE#         14
  C:0816H         LINE#         15
  C:0817H         LINE#         16
  C:0819H         LINE#         17
  C:081BH         LINE#         19
  C:081BH         LINE#         20
  C:0833H         LINE#         21
  C:0833H         LINE#         22
  C:0844H         LINE#         23
  C:0865H         LINE#         24
  C:0869H         LINE#         25
  C:0870H         LINE#         26
  C:0870H         LINE#         27
  C:0874H         LINE#         28
  C:0876H         LINE#         29
  C:0878H         LINE#         31
  C:0878H         LINE#         32
  C:087AH         LINE#         33
  C:087AH         LINE#         34
  C:0890H         LINE#         35
  C:0892H         LINE#         37
  C:0892H         LINE#         38
  C:08A5H         LINE#         39
  C:08A5H         LINE#         40
  C:08A7H         LINE#         41
  C:08A8H         LINE#         42
  C:08A9H         LINE#         43
  C:08A9H         LINE#         44
  C:08B6H         LINE#         45
  -------         ENDPROC       MAIN
  -------         ENDMOD        DIRECTACCESSC

  -------         MODULE        STRLEN
  C:08D1H         PUBLIC        _STRLEN
  -------         ENDMOD        STRLEN

BL51 BANKED LINKER/LOCATER V6.22                                                      12/20/2014  17:14:25  PAGE 3


  -------         MODULE        ?C?CLDPTR
  C:08B8H         PUBLIC        ?C?CLDPTR
  -------         ENDMOD        ?C?CLDPTR

******************************************************************************
* RESTRICTED VERSION WITH 0800H BYTE CODE SIZE LIMIT; USED: 00C5H BYTE ( 9%) *
******************************************************************************

Program Size: data=10.0 xdata=7 code=258
LINK/LOCATE RUN COMPLETE.  0 WARNING(S),  0 ERROR(S)
