BL51 BANKED LINKER/LOCATER V6.22                                                        04/06/2015  17:02:53  PAGE 1


BL51 BANKED LINKER/LOCATER V6.22, INVOKED BY:
C:\PROGRAM FILES (X86)\KEIL\C51\BIN\BL51.EXE STARTUP.obj, main1.obj TO ADC_2_C RAMSIZE (256)


MEMORY MODEL: SMALL


INPUT MODULES INCLUDED:
  STARTUP.obj (?C_STARTUP)
  main1.obj (MAIN1)
  C:\PROGRAM FILES (X86)\KEIL\C51\LIB\C51S.LIB (?C?SIDIV)
  C:\PROGRAM FILES (X86)\KEIL\C51\LIB\C51S.LIB (?C?UIDIV)


LINK MAP OF MODULE:  ADC_2_C (?C_STARTUP)


            TYPE    BASE      LENGTH    RELOCATION   SEGMENT NAME
            -----------------------------------------------------

            * * * * * * *   D A T A   M E M O R Y   * * * * * * *
            REG     0000H     0008H     ABSOLUTE     "REG BANK 0"
            DATA    0008H     0007H     UNIT         ?DT?MAIN1
            DATA    000FH     0001H     UNIT         _DATA_GROUP_
            IDATA   0010H     0001H     UNIT         ?STACK

            * * * * * * *   C O D E   M E M O R Y   * * * * * * *
            CODE    0000H     0003H     ABSOLUTE     
            CODE    0003H     0003H     ABSOLUTE     
                    0006H     07FAH                  *** GAP ***
            CODE    0800H     0098H     UNIT         ?PR?MAIN?MAIN1
            CODE    0898H     008BH     UNIT         ?C?LIB_CODE
            CODE    0923H     000DH     UNIT         ?PR?ADC?MAIN1
            CODE    0930H     000CH     UNIT         ?C_C51STARTUP
            CODE    093CH     0004H     UNIT         ?PR?HANDLER?MAIN1



OVERLAY MAP OF MODULE:   ADC_2_C (?C_STARTUP)


SEGMENT                          DATA_GROUP 
  +--> CALLED SEGMENT          START    LENGTH
----------------------------------------------
?C_C51STARTUP                  -----    -----
  +--> ?PR?MAIN?MAIN1

?PR?MAIN?MAIN1                 -----    -----
  +--> ?PR?ADC?MAIN1

?PR?ADC?MAIN1                  000FH    0001H



SYMBOL TABLE OF MODULE:  ADC_2_C (?C_STARTUP)

  VALUE           TYPE          NAME
  ----------------------------------
BL51 BANKED LINKER/LOCATER V6.22                                                      04/06/2015  17:02:53  PAGE 2



  -------         MODULE        ?C_STARTUP
  C:0930H         SEGMENT       ?C_C51STARTUP
  I:0010H         SEGMENT       ?STACK
  C:0000H         PUBLIC        ?C_STARTUP
  D:00E0H         SYMBOL        ACC
  D:00F0H         SYMBOL        B
  D:0083H         SYMBOL        DPH
  D:0082H         SYMBOL        DPL
  N:0000H         SYMBOL        IBPSTACK
  N:0100H         SYMBOL        IBPSTACKTOP
  N:0080H         SYMBOL        IDATALEN
  C:0933H         SYMBOL        IDATALOOP
  N:0000H         SYMBOL        PBPSTACK
  N:0100H         SYMBOL        PBPSTACKTOP
  N:0000H         SYMBOL        PDATALEN
  N:0000H         SYMBOL        PDATASTART
  N:0000H         SYMBOL        PPAGE
  N:0000H         SYMBOL        PPAGEENABLE
  D:00A0H         SYMBOL        PPAGE_SFR
  D:0081H         SYMBOL        SP
  C:0930H         SYMBOL        STARTUP1
  N:0000H         SYMBOL        XBPSTACK
  N:0000H         SYMBOL        XBPSTACKTOP
  N:0000H         SYMBOL        XDATALEN
  N:0000H         SYMBOL        XDATASTART
  C:0000H         LINE#         126
  C:0930H         LINE#         133
  C:0932H         LINE#         134
  C:0933H         LINE#         135
  C:0934H         LINE#         136
  C:0936H         LINE#         185
  C:0939H         LINE#         196
  -------         ENDMOD        ?C_STARTUP

  -------         MODULE        MAIN1
  C:0000H         SYMBOL        _ICE_DUMMY_
  D:00A0H         PUBLIC        P2
  D:0008H         PUBLIC        is_finished
  C:0800H         PUBLIC        main
  D:00DAH         PUBLIC        DAPR
  C:0923H         PUBLIC        adc
  D:0089H         PUBLIC        TMOD
  D:0009H         PUBLIC        min
  D:000AH         PUBLIC        max
  D:008CH         PUBLIC        TH0
  D:008AH         PUBLIC        TL0
  D:000BH         PUBLIC        T
  B:0088H.4       PUBLIC        TR0
  D:000DH         PUBLIC        mm
  D:00D9H         PUBLIC        ADDAT
  C:093CH         PUBLIC        handler
  B:00D8H.4       PUBLIC        BSY
  -------         PROC          MAIN
  C:0800H         LINE#         9
  C:0800H         LINE#         10
  C:0800H         LINE#         11
BL51 BANKED LINKER/LOCATER V6.22                                                      04/06/2015  17:02:53  PAGE 3


  C:0803H         LINE#         12
  C:0809H         LINE#         13
  C:080DH         LINE#         14
  C:080DH         LINE#         15
  C:0819H         LINE#         16
  C:0825H         LINE#         17
  C:0827H         LINE#         18
  C:083AH         LINE#         19
  C:083DH         LINE#         20
  C:0842H         LINE#         21
  C:0844H         LINE#         22
  C:0855H         LINE#         23
  C:0866H         LINE#         24
  C:0868H         LINE#         25
  C:0879H         LINE#         26
  C:087BH         LINE#         27
  C:088BH         LINE#         28
  C:0896H         LINE#         29
  -------         ENDPROC       MAIN
  -------         PROC          HANDLER
  C:093CH         LINE#         32
  C:093CH         LINE#         33
  C:093FH         LINE#         34
  -------         ENDPROC       HANDLER
  -------         PROC          ADC
  -------         DO            
  D:000FH         SYMBOL        x
  -------         ENDDO         
  C:0923H         LINE#         36
  C:0923H         LINE#         37
  C:0923H         LINE#         39
  C:0926H         LINE#         40
  C:0929H         LINE#         41
  C:092FH         LINE#         42
  -------         ENDPROC       ADC
  -------         ENDMOD        MAIN1

  -------         MODULE        ?C?SIDIV
  C:0898H         PUBLIC        ?C?SIDIV
  -------         ENDMOD        ?C?SIDIV

  -------         MODULE        ?C?UIDIV
  C:08CEH         PUBLIC        ?C?UIDIV
  -------         ENDMOD        ?C?UIDIV

******************************************************************************
* RESTRICTED VERSION WITH 0800H BYTE CODE SIZE LIMIT; USED: 00BBH BYTE ( 9%) *
******************************************************************************

Program Size: data=17.0 xdata=0 code=326
LINK/LOCATE RUN COMPLETE.  0 WARNING(S),  0 ERROR(S)
