A51 MACRO ASSEMBLER  INT_IO                                                               11/15/2014 07:44:17 PAGE     1


MACRO ASSEMBLER A51 V8.02b
OBJECT MODULE PLACED IN int_io.OBJ
ASSEMBLER INVOKED BY: C:\Program Files (x86)\Keil\C51\BIN\A51.EXE int_io.a51 SET(SMALL) DEBUG EP

LOC  OBJ            LINE     SOURCE

----                   1     dseg at 0x08
0008                   2             S:DS 4
----                   3     cseg at 0
0000 A890              4             MOV R0, P1
0002 12005C            5             LCALL f2d
0005 FA                6             MOV R2, A
0006 A880              7             MOV R0, P0
0008 12005C            8             LCALL f2d
000B 75F064            9             MOV B, #0x64
000E A4               10             MUL AB
000F C3               11             CLR C
0010 2A               12             ADD A, R2
0011 F8               13             MOV R0, A
0012 E5F0             14             MOV A, B
0014 3400             15             ADDC A, #0x00
0016 F9               16             MOV R1, A
                      17             ;R1.R0 is a decimal value.
0017 8808             18             MOV S, R0
0019 8909             19             MOV S+0x01, R1
001B 7B64             20             MOV R3, #0x64
001D 7C09             21             MOV R4, #0x09
001F                  22             loop:
001F E509             23             MOV a, S+0x01
0021 C3               24             CLR c
0022 9B               25             SUBB a, R3
0023 5012             26             JNC nextbit
0025 E509             27             MOV a, S+0x01
0027 23               28             RL a;
0028 F509             29             MOV S+0x01, a
002A E508             30             MOV a, S
002C C3               31             CLR c
002D 33               32             RLC a
002E F508             33             MOV S, a
0030 E4               34             CLR a
0031 3509             35             ADDC a, S+0x01
0033 F509             36             MOV S+0x01, a
0035 800F             37             JMP cont
0037                  38             nextbit:
0037 23               39             RL a
0038 F509             40             MOV S+0x01,a
003A E508             41             MOV a, S
003C C3               42             CLR c
003D 33               43             RLC a
003E 04               44             INC a
003F F508             45             MOV S, a 
0041 E4               46             CLR a
0042 3509             47             ADDC a, S+0x01
0044 F509             48             MOV S+0x01, a
0046                  49             cont:
0046 DCD7             50             DJNZ R4, loop
0048 AD08             51             MOV R5, S;
004A E509             52             MOV a, S+0x01
004C 03               53             RR a
004D FE               54             MOV R6, a
                      55             ;R5 is a result of division abd R6 is a rest
004E ED               56             MOV A, R5
004F 12006A           57             LCALL fd2
0052 F5A0             58             MOV P2, A
A51 MACRO ASSEMBLER  INT_IO                                                               11/15/2014 07:44:17 PAGE     2

0054 EE               59             MOV A, R6
0055 12006A           60             LCALL fd2
0058 F5B0             61             MOV P3, A
005A 8018             62             JMP fin
005C                  63             f2d:
005C E8               64             MOV A, R0
005D C4               65             SWAP A
005E 540F             66             ANL A, #0x0F
0060 75F00A           67             MOV B, #0x0A
0063 A4               68             MUL AB
0064 F9               69             MOV R1, A
0065 E8               70             MOV A, R0
0066 540F             71             ANL A, #0x0F
0068 29               72             ADD A, R1
0069 22               73             RET
006A                  74             fd2:
006A 75F00A           75             MOV B, #0x0A
006D 84               76             DIV AB
006E 540F             77             ANL A, #0x0F
0070 C4               78             SWAP A
0071 45F0             79             ORL A, B
0073 22               80             RET
0074                  81     fin:
                      82     END
A51 MACRO ASSEMBLER  INT_IO                                                               11/15/2014 07:44:17 PAGE     3

SYMBOL TABLE LISTING
------ ----- -------


N A M E             T Y P E  V A L U E   ATTRIBUTES

B. . . . . . . . .  D ADDR   00F0H   A   
CONT . . . . . . .  C ADDR   0046H   A   
F2D. . . . . . . .  C ADDR   005CH   A   
FD2. . . . . . . .  C ADDR   006AH   A   
FIN. . . . . . . .  C ADDR   0074H   A   
LOOP . . . . . . .  C ADDR   001FH   A   
NEXTBIT. . . . . .  C ADDR   0037H   A   
P0 . . . . . . . .  D ADDR   0080H   A   
P1 . . . . . . . .  D ADDR   0090H   A   
P2 . . . . . . . .  D ADDR   00A0H   A   
P3 . . . . . . . .  D ADDR   00B0H   A   
S. . . . . . . . .  D ADDR   0008H   A   


REGISTER BANK(S) USED: 0 


ASSEMBLY COMPLETE.  0 WARNING(S), 0 ERROR(S)
