A51 MACRO ASSEMBLER  IO_FLOAT                                                             11/15/2014 07:49:35 PAGE     1


MACRO ASSEMBLER A51 V8.02b
OBJECT MODULE PLACED IN io_float.OBJ
ASSEMBLER INVOKED BY: C:\Program Files (x86)\Keil\C51\BIN\A51.EXE io_float.a51 SET(SMALL) DEBUG EP

LOC  OBJ            LINE     SOURCE

----                   1     dseg at 0x08
0008                   2             S:DS 4
----                   3     cseg at 0
0000 A890              4             MOV R0, P1
0002 E8                5             MOV A, R0
0003 C4                6             SWAP A
0004 540F              7             ANL A, #0x0F
0006 75F00A            8             MOV B, #0x0A
0009 A4                9             MUL AB
000A F9               10             MOV R1, A
000B E8               11             MOV A, R0
000C 540F             12             ANL A, #0x0F
000E 29               13             ADD A, R1
                      14             ;Div of an elder part
000F 75F064           15             MOV B, #0x64
0012 84               16             DIV AB
0013 F8               17             MOV R0, A
0014 E5F0             18             MOV A, B
                      19             ;Div of a smaller part
0016 750800           20             MOV S, #0x00
0019 F509             21             MOV S+0x01, A
001B 7964             22             MOV R1, #0x64
001D 7A09             23             MOV R2, #0x09
001F                  24             loop:
001F E509             25             MOV a, S+0x01
0021 C3               26             CLR c
0022 99               27             SUBB a, R1
0023 5012             28             JNC nextbit
0025 E509             29             MOV a, S+0x01
0027 23               30             RL a;
0028 F509             31             MOV S+0x01, a
002A E508             32             MOV a, S
002C C3               33             CLR c
002D 33               34             RLC a
002E F508             35             MOV S, a
0030 E4               36             CLR a
0031 3509             37             ADDC a, S+0x01
0033 F509             38             MOV S+0x01, a
0035 800F             39             JMP cont
0037                  40             nextbit:
0037 23               41             RL a
0038 F509             42             MOV S+0x01,a
003A E508             43             MOV a, S
003C C3               44             CLR c
003D 33               45             RLC a
003E 04               46             INC a
003F F508             47             MOV S, a 
0041 E4               48             CLR a
0042 3509             49             ADDC a, S+0x01
0044 F509             50             MOV S+0x01, a
0046                  51             cont:
0046 DAD7             52             DJNZ R2, loop
0048 A908             53             MOV R1, S;
                      54             ;R0.R1 is a value fixed-pointed number.
                      55             ;Mult on 10.
004A E8               56             MOV A, R0
004B 75F00A           57             MOV B, #0x0A
004E A4               58             MUL AB
A51 MACRO ASSEMBLER  IO_FLOAT                                                             11/15/2014 07:49:35 PAGE     2

004F FF               59             MOV R7, A
0050 E9               60             MOV A, R1
0051 75F00A           61             MOV B, #0x0A
0054 A4               62             MUL AB
0055 FE               63             MOV R6, A
0056 E5F0             64             MOV A, B
0058 2F               65             ADD A, R7
0059 FF               66             MOV R7, A
                      67             ;R7.R6 = R0.R1 * 10
005A 540F             68             ANL A, #0x0f
005C FF               69             MOV R7, A
005D EE               70             MOV A, R6
005E 75F00A           71             MOV B, #0x0A
0061 A4               72             MUL AB
0062 E5F0             73             MOV A, B
0064 C4               74             SWAP A
0065 4F               75             ORL A, R7
0066 C4               76             SWAP A
0067 F5A0             77             MOV P2, A
                      78     END
A51 MACRO ASSEMBLER  IO_FLOAT                                                             11/15/2014 07:49:35 PAGE     3

SYMBOL TABLE LISTING
------ ----- -------


N A M E             T Y P E  V A L U E   ATTRIBUTES

B. . . . . . . . .  D ADDR   00F0H   A   
CONT . . . . . . .  C ADDR   0046H   A   
LOOP . . . . . . .  C ADDR   001FH   A   
NEXTBIT. . . . . .  C ADDR   0037H   A   
P1 . . . . . . . .  D ADDR   0090H   A   
P2 . . . . . . . .  D ADDR   00A0H   A   
S. . . . . . . . .  D ADDR   0008H   A   


REGISTER BANK(S) USED: 0 


ASSEMBLY COMPLETE.  0 WARNING(S), 0 ERROR(S)
