BL51 BANKED LINKER/LOCATER V6.22                                                        11/15/2014  07:44:18  PAGE 1


BL51 BANKED LINKER/LOCATER V6.22, INVOKED BY:
C:\PROGRAM FILES (X86)\KEIL\C51\BIN\BL51.EXE int_io.obj TO io_int_asm RAMSIZE (256)


INPUT MODULES INCLUDED:
  int_io.obj (INT_IO)


LINK MAP OF MODULE:  io_int_asm (INT_IO)


            TYPE    BASE      LENGTH    RELOCATION   SEGMENT NAME
            -----------------------------------------------------

            * * * * * * *   D A T A   M E M O R Y   * * * * * * *
            REG     0000H     0008H     ABSOLUTE     "REG BANK 0"
            DATA    0008H     0004H     ABSOLUTE     

            * * * * * * *   C O D E   M E M O R Y   * * * * * * *
            CODE    0000H     0074H     ABSOLUTE     



SYMBOL TABLE OF MODULE:  io_int_asm (INT_IO)

  VALUE           TYPE          NAME
  ----------------------------------

  -------         MODULE        INT_IO
  D:00F0H         SYMBOL        B
  C:0046H         SYMBOL        CONT
  C:005CH         SYMBOL        F2D
  C:006AH         SYMBOL        FD2
  C:0074H         SYMBOL        FIN
  C:001FH         SYMBOL        LOOP
  C:0037H         SYMBOL        NEXTBIT
  D:0080H         SYMBOL        P0
  D:0090H         SYMBOL        P1
  D:00A0H         SYMBOL        P2
  D:00B0H         SYMBOL        P3
  D:0008H         SYMBOL        S
  C:0000H         LINE#         4
  C:0002H         LINE#         5
  C:0005H         LINE#         6
  C:0006H         LINE#         7
  C:0008H         LINE#         8
  C:000BH         LINE#         9
  C:000EH         LINE#         10
  C:000FH         LINE#         11
  C:0010H         LINE#         12
  C:0011H         LINE#         13
  C:0012H         LINE#         14
  C:0014H         LINE#         15
  C:0016H         LINE#         16
  C:0017H         LINE#         18
  C:0019H         LINE#         19
  C:001BH         LINE#         20
  C:001DH         LINE#         21
BL51 BANKED LINKER/LOCATER V6.22                                                      11/15/2014  07:44:18  PAGE 2


  C:001FH         LINE#         23
  C:0021H         LINE#         24
  C:0022H         LINE#         25
  C:0023H         LINE#         26
  C:0025H         LINE#         27
  C:0027H         LINE#         28
  C:0028H         LINE#         29
  C:002AH         LINE#         30
  C:002CH         LINE#         31
  C:002DH         LINE#         32
  C:002EH         LINE#         33
  C:0030H         LINE#         34
  C:0031H         LINE#         35
  C:0033H         LINE#         36
  C:0035H         LINE#         37
  C:0037H         LINE#         39
  C:0038H         LINE#         40
  C:003AH         LINE#         41
  C:003CH         LINE#         42
  C:003DH         LINE#         43
  C:003EH         LINE#         44
  C:003FH         LINE#         45
  C:0041H         LINE#         46
  C:0042H         LINE#         47
  C:0044H         LINE#         48
  C:0046H         LINE#         50
  C:0048H         LINE#         51
  C:004AH         LINE#         52
  C:004CH         LINE#         53
  C:004DH         LINE#         54
  C:004EH         LINE#         56
  C:004FH         LINE#         57
  C:0052H         LINE#         58
  C:0054H         LINE#         59
  C:0055H         LINE#         60
  C:0058H         LINE#         61
  C:005AH         LINE#         62
  C:005CH         LINE#         64
  C:005DH         LINE#         65
  C:005EH         LINE#         66
  C:0060H         LINE#         67
  C:0063H         LINE#         68
  C:0064H         LINE#         69
  C:0065H         LINE#         70
  C:0066H         LINE#         71
  C:0068H         LINE#         72
  C:0069H         LINE#         73
  C:006AH         LINE#         75
  C:006DH         LINE#         76
  C:006EH         LINE#         77
  C:0070H         LINE#         78
  C:0071H         LINE#         79
  C:0073H         LINE#         80
  -------         ENDMOD        INT_IO

******************************************************************************
* RESTRICTED VERSION WITH 0800H BYTE CODE SIZE LIMIT; USED: 0074H BYTE ( 5%) *
BL51 BANKED LINKER/LOCATER V6.22                                                      11/15/2014  07:44:18  PAGE 3


******************************************************************************

Program Size: data=12.0 xdata=0 code=116
LINK/LOCATE RUN COMPLETE.  0 WARNING(S),  0 ERROR(S)
