BL51 BANKED LINKER/LOCATER V6.22                                                        11/15/2014  07:40:39  PAGE 1


BL51 BANKED LINKER/LOCATER V6.22, INVOKED BY:
C:\PROGRAM FILES (X86)\KEIL\C51\BIN\BL51.EXE io_int.obj TO io_int_c RAMSIZE (256)


MEMORY MODEL: SMALL


INPUT MODULES INCLUDED:
  io_int.obj (IO_INT)
  C:\PROGRAM FILES (X86)\KEIL\C51\LIB\C51S.LIB (?C_STARTUP)
  C:\PROGRAM FILES (X86)\KEIL\C51\LIB\C51S.LIB (?C?UIDIV)


LINK MAP OF MODULE:  io_int_c (IO_INT)


            TYPE    BASE      LENGTH    RELOCATION   SEGMENT NAME
            -----------------------------------------------------

            * * * * * * *   D A T A   M E M O R Y   * * * * * * *
            REG     0000H     0008H     ABSOLUTE     "REG BANK 0"
            IDATA   0008H     0001H     UNIT         ?STACK

            * * * * * * *   C O D E   M E M O R Y   * * * * * * *
            CODE    0000H     0003H     ABSOLUTE     
                    0003H     07FDH                  *** GAP ***
            CODE    0800H     0055H     UNIT         ?C?LIB_CODE
            CODE    0855H     003CH     UNIT         ?PR?MAIN?IO_INT
            CODE    0891H     0013H     UNIT         ?PR?_F2D?IO_INT
            CODE    08A4H     000FH     UNIT         ?PR?_FD2?IO_INT
            CODE    08B3H     000CH     UNIT         ?C_C51STARTUP



OVERLAY MAP OF MODULE:   io_int_c (IO_INT)


SEGMENT
  +--> CALLED SEGMENT
---------------------
?C_C51STARTUP
  +--> ?PR?MAIN?IO_INT

?PR?MAIN?IO_INT
  +--> ?PR?_FD2?IO_INT
  +--> ?PR?_F2D?IO_INT



SYMBOL TABLE OF MODULE:  io_int_c (IO_INT)

  VALUE           TYPE          NAME
  ----------------------------------

  -------         MODULE        IO_INT
  C:0000H         SYMBOL        _ICE_DUMMY_
  D:0080H         PUBLIC        P0
  D:0090H         PUBLIC        P1
BL51 BANKED LINKER/LOCATER V6.22                                                      11/15/2014  07:40:39  PAGE 2


  D:00A0H         PUBLIC        P2
  D:00B0H         PUBLIC        P3
  C:0855H         PUBLIC        main
  C:0891H         PUBLIC        _f2d
  C:08A4H         PUBLIC        _fd2
  -------         PROC          _FD2
  D:0007H         SYMBOL        x
  C:08A4H         LINE#         7
  C:08A4H         LINE#         8
  C:08A4H         LINE#         9
  C:08B2H         LINE#         10
  -------         ENDPROC       _FD2
  -------         PROC          _F2D
  D:0007H         SYMBOL        x
  C:0891H         LINE#         11
  C:0891H         LINE#         12
  C:0891H         LINE#         13
  C:08A3H         LINE#         14
  -------         ENDPROC       _F2D
  -------         PROC          MAIN
  -------         DO            
  D:0002H         SYMBOL        N
  -------         ENDDO         
  C:0855H         LINE#         16
  C:0855H         LINE#         17
  C:0855H         LINE#         19
  C:0871H         LINE#         21
  C:087EH         LINE#         22
  C:0890H         LINE#         23
  -------         ENDPROC       MAIN
  -------         ENDMOD        IO_INT

  -------         MODULE        ?C?UIDIV
  C:0800H         PUBLIC        ?C?UIDIV
  -------         ENDMOD        ?C?UIDIV

******************************************************************************
* RESTRICTED VERSION WITH 0800H BYTE CODE SIZE LIMIT; USED: 005EH BYTE ( 4%) *
******************************************************************************

Program Size: data=9.0 xdata=0 code=194
LINK/LOCATE RUN COMPLETE.  0 WARNING(S),  0 ERROR(S)
