BL51 BANKED LINKER/LOCATER V6.22                                                        12/20/2014  16:29:35  PAGE 1


BL51 BANKED LINKER/LOCATER V6.22, INVOKED BY:
C:\PROGRAM FILES (X86)\KEIL\C51\BIN\BL51.EXE multi_positive_c.obj, mult_positive.obj TO mult_positive_c RAMSIZE (256)


MEMORY MODEL: SMALL


INPUT MODULES INCLUDED:
  multi_positive_c.obj (MULTI_POSITIVE_C)
  mult_positive.obj (MULT_POSITIVE)
  C:\PROGRAM FILES (X86)\KEIL\C51\LIB\C51S.LIB (?C_STARTUP)
  C:\PROGRAM FILES (X86)\KEIL\C51\LIB\C51S.LIB (?C?SLSHR)


LINK MAP OF MODULE:  mult_positive_c (MULTI_POSITIVE_C)


            TYPE    BASE      LENGTH    RELOCATION   SEGMENT NAME
            -----------------------------------------------------

            * * * * * * *   D A T A   M E M O R Y   * * * * * * *
            REG     0000H     0008H     ABSOLUTE     "REG BANK 0"
            DATA    0008H     0004H     ABSOLUTE     
            DATA    000CH     0004H     UNIT         _DATA_GROUP_
            IDATA   0010H     0001H     UNIT         ?STACK

            * * * * * * *   C O D E   M E M O R Y   * * * * * * *
            CODE    0000H     0048H     ABSOLUTE     
* OVERLAP * CODE    0000H     0003H     ABSOLUTE     
                    0048H     07B8H                  *** GAP ***
            CODE    0800H     005CH     UNIT         ?PR?MAIN?MULTI_POSITIVE_C
            CODE    085CH     0014H     UNIT         ?C?LIB_CODE
            CODE    0870H     000CH     UNIT         ?C_C51STARTUP



OVERLAY MAP OF MODULE:   mult_positive_c (MULTI_POSITIVE_C)


SEGMENT                             DATA_GROUP 
  +--> CALLED SEGMENT             START    LENGTH
-------------------------------------------------
?C_C51STARTUP                     -----    -----
  +--> ?PR?MAIN?MULTI_POSITIVE_C

?PR?MAIN?MULTI_POSITIVE_C         000CH    0004H



SYMBOL TABLE OF MODULE:  mult_positive_c (MULTI_POSITIVE_C)

  VALUE           TYPE          NAME
  ----------------------------------

  -------         MODULE        MULTI_POSITIVE_C
  C:0000H         SYMBOL        _ICE_DUMMY_
  D:0080H         PUBLIC        P0
  D:0090H         PUBLIC        P1
BL51 BANKED LINKER/LOCATER V6.22                                                      12/20/2014  16:29:35  PAGE 2


  D:00A0H         PUBLIC        P2
  D:00B0H         PUBLIC        P3
  C:0800H         PUBLIC        main
  -------         PROC          MAIN
  -------         DO            
  D:000CH         SYMBOL        S
  D:0002H         SYMBOL        A
  D:0001H         SYMBOL        i
  -------         ENDDO         
  C:0800H         LINE#         3
  C:0800H         LINE#         4
  C:0800H         LINE#         8
  C:080BH         LINE#         9
  C:0811H         LINE#         10
  C:0813H         LINE#         11
  C:0813H         LINE#         12
  C:0845H         LINE#         13
  C:0849H         LINE#         14
  C:0858H         LINE#         15
  C:085BH         LINE#         16
  -------         ENDPROC       MAIN
  -------         ENDMOD        MULTI_POSITIVE_C

  -------         MODULE        MULT_POSITIVE
  C:000BH         SYMBOL        CIRCLE
  C:002FH         SYMBOL        NEXT1
  C:003EH         SYMBOL        NEXT2
  D:0080H         SYMBOL        P0
  D:0090H         SYMBOL        P1
  D:00A0H         SYMBOL        P2
  D:00B0H         SYMBOL        P3
  D:0008H         SYMBOL        S
  C:001BH         SYMBOL        SHIFT
  C:0000H         SYMBOL        START
  C:0000H         LINE#         5
  C:0003H         LINE#         6
  C:0005H         LINE#         8
  C:0007H         LINE#         9
  C:0009H         LINE#         10
  C:000BH         LINE#         12
  C:000DH         LINE#         15
  C:000EH         LINE#         17
  C:0011H         LINE#         19
  C:0012H         LINE#         21
  C:0014H         LINE#         22
  C:0016H         LINE#         23
  C:0017H         LINE#         25
  C:0019H         LINE#         26
  C:001BH         LINE#         29
  C:001DH         LINE#         30
  C:001EH         LINE#         31
  C:0020H         LINE#         32
  C:0022H         LINE#         34
  C:0024H         LINE#         35
  C:0025H         LINE#         36
  C:0026H         LINE#         37
  C:0028H         LINE#         38
BL51 BANKED LINKER/LOCATER V6.22                                                      12/20/2014  16:29:35  PAGE 3


  C:002AH         LINE#         39
  C:002CH         LINE#         40
  C:002DH         LINE#         41
  C:002FH         LINE#         43
  C:0031H         LINE#         44
  C:0032H         LINE#         45
  C:0033H         LINE#         46
  C:0035H         LINE#         47
  C:0037H         LINE#         48
  C:0039H         LINE#         49
  C:003BH         LINE#         50
  C:003CH         LINE#         51
  C:003EH         LINE#         53
  C:0040H         LINE#         54
  C:0043H         LINE#         55
  C:0046H         LINE#         56
  -------         ENDMOD        MULT_POSITIVE

  -------         MODULE        ?C?SLSHR
  C:085CH         PUBLIC        ?C?SLSHR
  -------         ENDMOD        ?C?SLSHR

*** WARNING L5: CODE SPACE MEMORY OVERLAP
    FROM:    0000H
    TO:      0047H

******************************************************************************
* RESTRICTED VERSION WITH 0800H BYTE CODE SIZE LIMIT; USED: 00A4H BYTE ( 8%) *
******************************************************************************

Program Size: data=17.0 xdata=0 code=199
LINK/LOCATE RUN COMPLETE.  1 WARNING(S),  0 ERROR(S)
