BL51 BANKED LINKER/LOCATER V6.22                                                        03/23/2015  20:06:40  PAGE 1


BL51 BANKED LINKER/LOCATER V6.22, INVOKED BY:
C:\PROGRAM FILES (X86)\KEIL\C51\BIN\BL51.EXE main_l.obj TO Lab1_Task2_Asm_Length


INPUT MODULES INCLUDED:
  main_l.obj (MAIN_L)


LINK MAP OF MODULE:  Lab1_Task2_Asm_Length (MAIN_L)


            TYPE    BASE      LENGTH    RELOCATION   SEGMENT NAME
            -----------------------------------------------------

            * * * * * * *   D A T A   M E M O R Y   * * * * * * *
            REG     0000H     0008H     ABSOLUTE     "REG BANK 0"
                    0008H     0028H                  *** GAP ***
            IDATA   0030H     000AH     ABSOLUTE     

            * * * * * * *   C O D E   M E M O R Y   * * * * * * *
            CODE    0000H     0002H     ABSOLUTE     
                    0002H     0009H                  *** GAP ***
            CODE    000BH     0002H     ABSOLUTE     
                    000DH     0033H                  *** GAP ***
            CODE    0040H     0031H     ABSOLUTE     



SYMBOL TABLE OF MODULE:  Lab1_Task2_Asm_Length (MAIN_L)

  VALUE           TYPE          NAME
  ----------------------------------

  -------         MODULE        MAIN_L
  D:00E0H         SYMBOL        ACC
  B:00A8H.7       SYMBOL        EA
  B:00A8H.1       SYMBOL        ET0
  B:00A8H.3       SYMBOL        ET1
  C:005EH         SYMBOL        EX00
  C:0056H         SYMBOL        LOOP
  D:0090H         SYMBOL        P1
  D:00A0H         SYMBOL        P2
  D:00D0H         SYMBOL        PSW
  D:0081H         SYMBOL        SP
  I:0030H         SYMBOL        STACK
  C:0040H         SYMBOL        START
  D:008CH         SYMBOL        TH0
  D:008DH         SYMBOL        TH1
  D:008AH         SYMBOL        TL0
  D:008BH         SYMBOL        TL1
  D:0089H         SYMBOL        TMOD
  B:0088H.4       SYMBOL        TR0
  B:0088H.6       SYMBOL        TR1
  C:0000H         LINE#         4
  C:000BH         LINE#         7
  C:0040H         LINE#         11
  C:0043H         LINE#         12
  C:0046H         LINE#         13
BL51 BANKED LINKER/LOCATER V6.22                                                      03/23/2015  20:06:40  PAGE 2


  C:0048H         LINE#         14
  C:004AH         LINE#         15
  C:004CH         LINE#         16
  C:004EH         LINE#         17
  C:0050H         LINE#         18
  C:0053H         LINE#         19
  C:0056H         LINE#         21
  C:0059H         LINE#         22
  C:005CH         LINE#         23
  C:005EH         LINE#         26
  C:0060H         LINE#         27
  C:0062H         LINE#         28
  C:0064H         LINE#         29
  C:0066H         LINE#         30
  C:0069H         LINE#         31
  C:006CH         LINE#         32
  C:006EH         LINE#         33
  C:0070H         LINE#         34
  -------         ENDMOD        MAIN_L

******************************************************************************
* RESTRICTED VERSION WITH 0800H BYTE CODE SIZE LIMIT; USED: 0035H BYTE ( 2%) *
******************************************************************************

Program Size: data=18.0 xdata=0 code=53
LINK/LOCATE RUN COMPLETE.  0 WARNING(S),  0 ERROR(S)
