A51 MACRO ASSEMBLER  MAIN                                                                 03/23/2015 19:59:46 PAGE     1


MACRO ASSEMBLER A51 V8.02b
OBJECT MODULE PLACED IN main.OBJ
ASSEMBLER INVOKED BY: C:\Program Files (x86)\Keil\C51\BIN\A51.EXE main.a51 SET(SMALL) DEBUG EP

LOC  OBJ            LINE     SOURCE

----                   1     iseg at 30h
0030                   2     Stack: ds 10
----                   3     cseg at 0
0000 803E              4     jmp start
                       5     
----                   6     cseg at 0Bh
000B 8056              7     jmp ex00
                       8     
----                   9     cseg at 40h
0040                  10     start: 
0040 75812F           11             mov SP, #Stack-1
0043 758909           12             mov TMOD, #9h   
0046 D2A9             13             setb ET0
0048 D28C             14             setb TR0
004A D2AF             15             setb EA
004C                  16             loop:
004C E58A             17                     mov a, TL0
004E B5900A           18                     cjne a, P1,next
0051 AA8C             19                     mov R2, TH0
0053 A98A             20                     mov R1, TL0
0055 758A00           21                     mov TL0, #0
0058 758C00           22                     mov TH0, #0
005B                  23                     next:
005B 858A90           24                             mov P1, TL0
005E 858CA0           25                             mov P2, TH0
0061 80E9             26                     jmp loop
                      27     
0063                  28     ex00:
0063 C0E0             29             push ACC
0065 C0D0             30             push PSW
0067 D0D0             31             pop PSW
0069 D0E0             32             pop ACC
006B 32               33             reti
                      34     
                      35     end
A51 MACRO ASSEMBLER  MAIN                                                                 03/23/2015 19:59:46 PAGE     2

SYMBOL TABLE LISTING
------ ----- -------


N A M E             T Y P E  V A L U E   ATTRIBUTES

ACC. . . . . . . .  D ADDR   00E0H   A   
EA . . . . . . . .  B ADDR   00A8H.7 A   
ET0. . . . . . . .  B ADDR   00A8H.1 A   
EX00 . . . . . . .  C ADDR   0063H   A   
LOOP . . . . . . .  C ADDR   004CH   A   
NEXT . . . . . . .  C ADDR   005BH   A   
P1 . . . . . . . .  D ADDR   0090H   A   
P2 . . . . . . . .  D ADDR   00A0H   A   
PSW. . . . . . . .  D ADDR   00D0H   A   
SP . . . . . . . .  D ADDR   0081H   A   
STACK. . . . . . .  I ADDR   0030H   A   
START. . . . . . .  C ADDR   0040H   A   
TH0. . . . . . . .  D ADDR   008CH   A   
TL0. . . . . . . .  D ADDR   008AH   A   
TMOD . . . . . . .  D ADDR   0089H   A   
TR0. . . . . . . .  B ADDR   0088H.4 A   


REGISTER BANK(S) USED: 0 


ASSEMBLY COMPLETE.  0 WARNING(S), 0 ERROR(S)
